:100000000200037581311200E4E582600302006F93
:10001000780079007A007B007C007D00EC4D601C4C
:1000200088828983E493A3A882A9838A828B83F040
:10003000A3AA82AB831CBCFFE31D80E07582007520
:1000400083007C007D00EC4D600AE4F0A31CBCFF43
:10005000F51D80F27582007583007C007D00EC4DFB
:10006000600AE4F0A31CBCFFF51D80F212007C12B4
:1000700001DA80FE25352E3366000D00228582E0F0
:10008000A2E792A1D2A3A2A292F7C2A3A2E692A152
:10009000D2A3A2A292F6C2A3A2E592A1D2A3A2A247
:1000A00092F5C2A3A2E492A1D2A3A2A292F4C2A307
:1000B000A2E392A1D2A3A2A292F3C2A3A2E292A12E
:1000C000D2A3A2A292F2C2A3A2E192A1D2A3A2A21F
:1000D00092F1C2A3A2E092A1D2A3A2A292F0C2A3E3
:1000E00085F08222758E1175E60075E70075D600E1
:1000F00075D70075CE0075CF0075C60075C700C2F4
:10010000A0C2A3D2A2438780759852759B00759AAE
:10011000F4759B1E75AE0075820022AA82C28C53B4
:1001200089F0438901EA24FA5006EA24FBFA8002A6
:100130007A018A1C751D00751E00751F0090FFEA6C
:1001400074FFF5F01202C2AA82AB83C28D8B047DCC
:10015000008C8C7B008A8AD28C308DFD22AA82ABE7
:10016000837C007D00C3EC9AED9B502B7E00BE0487
:1001700000501D7582FAC002C003C004C005C0064D
:1001800012011BD006D005D004D003D0020E80DEB1
:100190000CBC00D10D80CE22AA82C2A0758201C003
:1001A0000212007DD002EAC454F0FA74804AF5824B
:1001B00012007DAA8274035AFC7B00758200C00382
:1001C000C00412007DAA82D004D0037D00EA2BFB7C
:1001D000ED3CFCD2A08B828C83229001F412015D55
:1001E0007A00BA010040030202AA8A82C002120108
:1001F00098120330AB82AC83ADF0FEC003C004C0E4
:1002000005C00690126F75F083744012033CAB82F8
:10021000AC83ADF0FEE58124FCF581E4C0E074C060
:10022000C0E0747FC0E07444C0E08B828C838DF0AA
:10023000EE120420AB82AC83ADF0FEE58124FCF528
:1002400081C003C004C005C00690000075F0C874EA
:100250004212033CAB82AC83ADF0FEE58124FCF599
:1002600081E4C0E07480C0E07488C0E07443C0E002
:100270008B828C838DF0EE120415AB82AC83ADF0D3
:10028000FEE58124FCF581C003C004C005C00674EE
:1002900074C0E07400C0E07480C0E01203F4E58133
:1002A00024F9F581D0020A0201E2747AC0E07400F8
:1002B000C0E07480C0E01203F4158115811581023D
:1002C00001E0AAF0FBE582851CF0A4FCADF0E5831B
:1002D000851CF0A42DFDE435F0FEE582851DF0A41B
:1002E0002DFDE5F03EFEE433FFEA851CF0A42EFE72
:1002F000E5F03FFFE583851DF0A42EFEE5F03FFF0E
:10030000E582851EF0A42EFEE5F03FFFEB851CF094
:10031000A42FFFEA851DF0A42FFFE583851EF0A41E
:100320002FFFE582851FF0A42F8EF08D838C822213
:10033000E4AC83AB82FAF9748E0205481205D4BC92
:100340000003020573EF60FA30D502B2D1E583B441
:10035000FF03020589E582B4FF0302058925834076
:10036000072482400B02057324831450030205897D
:10037000F582EA8DF0A4A8F0EA8EF0A428F8E4351E
:10038000F0F9EB8DF0A428E935F0F9E433CA8FF0E9
:10039000A429F9EA35F0FAEBF88EF0A429F9EA3548
:1003A000F0FAE433FBEC8DF0A429F9EA35F0FAE435
:1003B0003BFBE88FF0A42AFAEB35F0FBE433CCFDED
:1003C0008EF0A42AFAEB35F0FBE43CFCED8FF0A4B0
:1003D0002BFBEC35F0FC20E7031205A102055202CD
:1003E0000F8E85821885831985F01A85091B900365
:1003F000DF0209E1C008858108E50824FBF51BE55B
:100400000824FBF8861808861908861A9003DF125C
:1004100009E1D00822A8811818C6B2E7C6020FA3C6
:100420001205D430D502B2D1BF0009BC00030205C9
:1004300096020589BC0003020573E583B4FF0BE552
:1004400082B4FF03020596020573E582B4FF03023E
:100450000589C395835007247F400B0205732480D0
:10046000145003020589C0E0E4CCCBCAF98D1C8E80
:100470001D8F1EEF54F0C4F51F758306851FF0EB2A
:1004800084F582E9C4F9EAC4FAEBC4FBEC540FC466
:100490007803D6FC18EBD6FB18EAD6FA8582F0ED85
:1004A000A4A8F0FD8582F0EEA428FEE435F0F885DE
:1004B00082F0EFA428FFE435F0F8E99DF9EA9EFA0E
:1004C000EB9FFBEC98FCAD1CAE1DAF1E30E710158A
:1004D00082E92DF9EA3EFAEB3FFBE43CFC80EDC0FB
:1004E00082D58398C3E933F9EA33FAEB33FBEC3373
:1004F000FCC3E99DEA9EEB9FEC9400B3E413F9D0B2
:1005000002D0E0C44AFAD003D0E0C44BFBD004D000
:10051000E0F5F0540FC44CFCD082158230F40FD3B8
:10052000EC13FCEB13FBEA13FAE913F90582E9304B
:10053000E70A74012AFAE43BFBE43CFC02056AFC8E
:10054000ABF0AA83A982749EC2D1F5821205A102E2
:100550000552B98003EA13B34010EA2401FAE43BE0
:10056000FBE43CFC50047C800582BC000EBB000B0D
:10057000BA0008E4F5F0F583F58222A2D1E58213F2
:100580008CF092F78B838A8222E4F583F58275F0F2
:1005900080F4A2D11322E4F583F58275F0C0747F54
:1005A000227804EC7011E58224F8500AF582E4C93F
:1005B000CACBFCD8EF22EC7820058220E713D58245
:1005C0000122C3E933F9EA33FAEB33FBEC33FCD80D
:1005D000EA158222AA82AB83A2F73392D16002D2BB
:1005E000F7F582ACF0E58124F9F8E6FD08E6FE08AF
:1005F00086F008E6A2F73392D56002D2F7F583AF12
:10060000F022AA827413C0E07406C0E0C00AC00BD6
:100610008A82220511E4B51102051222AA827430E1
:100620002AFA24C6500A74072AFA3000034302202B
:100630008A82020602E582FAC4540FF582C00212D1
:10064000061CD002740F5AF58202061CAA0CAB0DD0
:10065000AC0EAD0FAE10751720EE2EFEED2354013B
:10066000FF4206EA2AFAEB33FBEC33FCED33FDC321
:10067000EE95134008EEC39513FE430201D517D93A
:100680008A0C8B0D8C0E8D0F8E1022782EE624D0C6
:1006900075F00AA4FA782FE624D02AFA782D86037A
:1006A000BB2D04C3E49AFA751301C3E464808AF095
:1006B00063F08095F050297517038A0374F62517A7
:1006C000401C0513E517142422F8E5172422F987A6
:1006D00004A604772E1BEBFA6004051780DE8B025C
:1006E000EA30E70D782386037824A6037823762E54
:1006F0000AE515600AE51504FB2513F5138005309E
:100700000B02051378228603E4BB2D0104FB70065F
:1007100020060330070205133004030207D2300518
:1007200057EB600C75822DC002120602D002801CAD
:1007300030060C75822BC002120602D002800D30EA
:10074000070A758220C002120602D00278238604AE
:10075000BC2E0C758230C002120602D0021514ACF9
:10076000141514C3E5139C4003020816758230C0AB
:1007700002120602D00280E7AC141514C3E5139CE4
:10078000500C758220C002120602D00280EA782244
:100790008604BC2D0C75822DC002120602D0028088
:1007A0001C30060C75822BC002120602D002800D8E
:1007B00030070A758220C002120602D00278238612
:1007C00004BC2E52758230C002120602D0021514EB
:1007D0008044EB600E75822DC002120602D0021515
:1007E00014802030060E75822BC002120602D00241
:1007F0001514800F30070C758220C002120602D03B
:1008000002151478238603BB2E0C758230C00212A9
:100810000602D0021514751701C20DE5172422F83F
:100820008603BB45030208D3BB2E348A03C3E464AA
:10083000808BF063F08095F0500F758230C003120A
:100840000602D0031B8B0280E48B02D20DE51570EB
:1008500038200B030208D375822E120602807430F2
:100860000D278A03EB30E71FC3E464808515F0632E
:10087000F08095F0500C758230C003120602D00350
:1008800015150B8B0280DD8B02300D0EC3E46480E6
:100890008515F063F08095F05021E5172422F88645
:1008A000038B82C002120602D002300D0EE517241F
:1008B00022F88603BB2E02800215151514C3E464CA
:1008C000808515F063F08095F04003200D05051735
:1008D00002081BC3E464808515F063F08095F05036
:1008E0000A758230120602151580E830040FAA142A
:1008F0001514EA600875822012060280F122E515BF
:100900007003300B0D74072515FAE514C39AF5141E
:100910008006E51424FAF51475170078228602BAC9
:100920002B0F20060C78227620200705751701056D
:1009300014200419AA14C3E464808AF063F080953B
:10094000F0500A758220120602151480E7C20DE5E8
:10095000172422F88602BA00028069BA451F3000C7
:10096000027665C3E464808515F063F08095F050ED
:100970000A758230120602151580E8D20DC3E517FC
:100980009402E433FA7014EA700EC3E464808515AF
:10099000F063F08095F04003300D16E5172422F83F
:1009A00086028A82120602E51724FD501215158070
:1009B0000E7402B51709300B0675822E1206020559
:1009C0001702094F300419AA14C3E464808AF06343
:1009D000F08095F0500A758220120602151480E707
:1009E0002285820A85830BE4F511F512AA18AB194A
:1009F000AC1A8A828B838CF0120FFCFD74012AF5ED
:100A000018E43BF5198C1AEDFA7003020F87BA252A
:100A1000028003020F7FC204C205C206C207C208D9
:100A2000C209C20AC20BC201C202C2037513007519
:100A300014007515FFAB18AC19AD1A8B828C838D21
:100A4000F0120FFCFAA3AB82AC838B188C198D1AB1
:100A5000BA25078A8212060280928A06BE300040BA
:100A60002E8A06EE24C6402774FFB51513E51475CB
:100A7000F00AA4FEEA24D02EF51470BFD20580BB84
:100A8000E51575F00AA4FEEA24D02EF51580ACBA5F
:100A90002E0A74FFB515A4751500809F8A06BE61E5
:100AA00000400E8A06EE248540075302DFD2008004
:100AB00002C200BA20028075BA2303020B3CBA2A94
:100AC00003020B41BA2B02805FBA2D028055BA4255
:100AD00002805FBA4303020B86BA4403020CC1BA18
:100AE0004503020CDBBA4603020CD7BA4703020CDB
:100AF000DFBA4903020CC1BA4C02803BBA4E030272
:100B00000CE3BA4F03020CC8BA5003020C5ABA5392
:100B100003020BAABA5503020CCDBA5803020CD239
:100B2000020D0DD204020A3BD206020A3BD2070292
:100B30000A3BD209020A3BD20A020A3BD20B020A42
:100B40003B74FFB5152030090BE51B14F8881B8694
:100B500014020A3BE51B24FEF8881B86060886075C
:100B6000188E14020A3B30090BE51B14F8881B860B
:100B700015020A3BE51B24FEF8881B86060886073B
:100B8000188E15020A3B30090AE51B14F8881B86EB
:100B900002800FE51B24FEF8881B860308860418D4
:100BA0008B028A82120602020D12E51B24FDF888D0
:100BB0001B860308860408860518188B0C8C0D8D7F
:100BC0000E8B828C838DF0121150AB82AC838B160E
:100BD00074FFB5150385161520041DC3E51695147D
:100BE0005016E514C39516F514AB141514EB6008F4
:100BF00075822012060280F1850C82850D83850E98
:100C0000F0120FFCFBFA6029AB151515C3E46480E4
:100C10008BF063F08095F050188A82120602AB0CBC
:100C2000AC0DAD0E0BBB00010C8B0C8C0D8D0E8032
:100C3000C7200403020D12C3E51695144003020DEC
:100C400012E514C39516F514AB141514EB700302DA
:100C50000D1275822012060280EEE51B24FDF88835
:100C60001B860308860408860518188B0C8C0D8DCE
:100C70000EE50EFB30E7047A438013EB546060040A
:100C80007A50800AEB30E6047A4980027A588A82E8
:100C9000C00212060275823A1206027582301206EE
:100CA00002758278120602D002BA4902800BBA504D
:100CB000028006850D82120635850C82120635806B
:100CC00051D20875130A804A751308804575130AB6
:100CD0008040751310803BD2018037D2028033D21E
:100CE00003802FE51B24FDF8881B86030886040873
:100CF000860518188B0C8C0D8D0E8B828C838DF0D5
:100D0000E511121137A3E51212113780058A8212FC
:100D10000602200106200203300370E51B24FCF8C4
:100D2000881B860308860408860508860618181896
:100D30008B0C8C0D8D0E8E0FE50CE50DE50EE50F81
:100D40008B828C838DF0EE12101874FFB51503752D
:100D50001506300327747F550FFB8B10E510EB2B26
:100D6000FB8B10E50E30E70674014510F510E51019
:100D700024684006749925104002D20230020612FF
:100D800008FE0209EC12068B0209ECE5137003025F
:100D900009EC7B2730092BE51B14F8881BE6FC3394
:100DA00095E0FDFEFF8C0C8D0D8E0E8F0F20085EE2
:100DB000AC0C7D007E007F008C0C8D0D8E0E8F0F95
:100DC000804C300A1FE51B24FCF8881B860408862B
:100DD000050886060886071818188C0C8D0D8E0ECF
:100DE0008F0F802AE51B24FEF8881B8604088605E1
:100DF00018ED3395E0FEFF8C0C8D0D8E0E8F0F20BD
:100E0000080CAC0CAD0D7E007F008E0E8F0F300BEA
:100E100043E50C450D450E450F60397408B5130CBC
:100E2000758230C003120602D00380287410B513F7
:100E300023758230C003120602D00330000C758285
:100E400078C003120602D003800A758258C00312CC
:100E50000602D003300825AC0CAD0DAE0EE50FFF39
:100E600030E717C3E49CFCE49DFDE49EFEE49FFF95
:100E70008C0C8D0D8E0E8F0F8002C208751600D25D
:100E80000C8B00751000C00012064CD000200C0D19
:100E9000E510C4FCE6FD4CF61888038002A6100598
:100EA00016B20CE50C450D450E450F70D68803E5CE
:100EB00014700375140120051A200417E51604FCAC
:100EC000C39514500E758220C003120602D003157C
:100ED0001480E930080E75822DC003120602D0037B
:100EE00015148024E516602030060E75822BC00391
:100EF000120602D0031514800F30070C758220C033
:100F000003120602D003151420041EAC141514C3DA
:100F1000E5169C50273005047C3080027C208C82B2
:100F2000C003120602D00380E2C3E51695145009EF
:100F3000E514C39516F51480037514008B00AB16E9
:100F40001516EB6022B20C200C0A08E6C4540FFB05
:100F50008B1080078603740F5BF510851082C0002C
:100F600012061CD00080D72004030209ECAB141534
:100F700014EB70030209EC75822012060280EE8ADF
:100F8000821206020209EC85118285128322AA824E
:100F9000BA0A0810990280FB75990D10990280FB1E
:100FA0008A99221205D47900E583B58202800D501A
:100FB00003121178E583C39582121192E5D0C465BE
:100FC000D020E117EA2DFAEB3EFBEC3FFC50097410
:100FD00001121192EC4480FC020552C3EA9DFAEB27
:100FE0009EFBEC9FFC500FC3E499F9E49AFAE49B52
:100FF000FBE49CFCB2D11205A102055220F714308B
:10100000F6148883A88220F507E6A883758300225A
:10101000E280F7E49322E022C0E0F8458245834570
:10102000F07009F5F0FBFCFDFE0210E6E823A2F7E4
:1010300092E0F8A982AA83D2F7ABF07C007E07C3C6
:10104000749798404074FF2EFE740A89F0A4F985C5
:10105000F082740A8AF0A4FA85F083740A8BF0A4F3
:10106000FB740529F9EA3582FAEB3583FB74003508
:10107000F0FCC3EC13FCEB13FBEA13FAE913F908D9
:10108000EC70EF80BAE8C3947FF88B838EF0E4FBBA
:10109000FCFDFEFF08C3E933F9EA33FAE58333F5D3
:1010A00083EB3BD4FBEC3CD4FCED3DD4FDEE3ED4D5
:1010B000FEEF3FD4FF602D05F074052BD4FBE43C1C
:1010C000D4FCE43DD4FDE43ED4FEE43FD4FF75827D
:1010D00004C3EF13FFEE13FEED13FDEC13FCEB1353
:1010E000FBD582EDD8AF7822D0E020E704762B80C4
:1010F00002762D087906E7C4540F4430F608B90685
:1011000003762E08E7540F4430F60819B902E77643
:101110004508E5F020E704762B8004762DF40408DA
:1011200075F00A844430F608E5F04430F608E4F639
:1011300090002275F0402220F71030F6118883A825
:101140008220F507F6A88375830022F280F7F0224B
:10115000AA82AB83ACF07D007E008A828B838CF008
:10116000120FFCFFA3AA82AB83EF60070DBD00EA5C
:101170000E80E78D828E8322E582C583F582A2D11F
:1011800033A2D592D11392D5ECCFFCEBCEFBEACDB6
:10119000FA226040F82582500274FFF582E824F8B4
:1011A000501ECCCBCAF9E4CC24F85014CBCAF9E4D5
:1011B000CB24F8500BCAF9E4CA24F8500379002272
:1011C00024086010F8C3EC13FCEB13FBEA13FAE9F4
:1011D00013F9D8F122000000000000000000000018
:00000001FF
