:1000000002000375814312011EE582600302006F46
:10001000780079007A007B007C007D00EC4D601C4C
:1000200088828983E493A3A882A9838A828B83F040
:10003000A3AA82AB831CBCFFE31D80E07582007520
:1000400083007C007D00EC4D600AE4F0A31CBCFF43
:10005000F51D80F27582007583007C007D00EC4DFB
:10006000600AE4F0A31CBCFFF51D80F21200B6127A
:10007000021480FE0A0A415438394C503531527806
:1000800032205350492041444320746573742070DA
:10009000726F6772616D2E0A005625643D25352EFC
:1000A0003366200A0048616C665F706572696F6430
:1000B0003D2566000D00228582E0A2E792A1D2A331
:1000C000A2A292F7C2A3A2E692A1D2A3A2A292F602
:1000D000C2A3A2E592A1D2A3A2A292F5C2A3A2E4D6
:1000E00092A1D2A3A2A292F4C2A3A2E392A1D2A30C
:1000F000A2A292F3C2A3A2E292A1D2A3A2A292F2DE
:10010000C2A3A2E192A1D2A3A2A292F1C2A3A2E0B1
:1001100092A1D2A3A2A292F0C2A385F08222758EF0
:100120001175E60075E70075D60075D70075CE002D
:1001300075CF0075C60075C700C2A0C2A3D2A24386
:100140008780759852759B00759AF4759B1E75AEE5
:100150000075820022AA82C28C5389F0438901EA89
:1001600024FA5006EA24FBFA80027A018A127513F7
:100170000075140075150090FFEA74FFF5F0120485
:1001800052AA82AB83C28D8B047D008C8C7B008A4B
:100190008AD28C308DFD22AA82AB837C007D00C385
:1001A000EC9AED9B502B7E00BE0400501D7582FA28
:1001B000C002C003C004C005C006120155D006D05D
:1001C00005D004D003D0020E80DE0CBC00D10D801F
:1001D000CE22AA82C2A0758201C0021200B7D0024C
:1001E000EAC454F0FA74804AF5821200B7AA827405
:1001F000035AFC7B00758200C003C0041200B7AA3A
:1002000082D004D0037D00EA2BFBED3CFCD2A08B16
:10021000828C83229001F41201977474C0E0740000
:10022000C0E07480C0E01205E81581158115815386
:1002300089F0438901C28D758A00758C0075820032
:100240001201D2AA82AB83C374029AE49B40EE757A
:1002500082001201D2AA82AB83C3EA9404EB940019
:1002600040EDD28C7A007B00758200C002C0031280
:1002700001D2AC82AD83D003D002C374029CE49D52
:10028000500C108D0280E10ABA00DD0B80DAC28CBE
:100290008A828B831204C0AA82AB83ACF0FDC002B9
:1002A000C003C004C00590000075F08074471204BC
:1002B000CCAA82AB83ACF0FDE58124FCF581858C72
:1002C00082C002C003C004C00512056FAE82AF83B6
:1002D000A8F0F9C006C007C000C00190000075F08A
:1002E0008074431204CCAE82AF83A8F0F9E5812478
:1002F000FCF581D005D004D003D002C006C007C0F1
:1003000000C0018A828B838CF0ED12057AAA82AB41
:1003100083ACF0FDE58124FCF581AE8A7F008E82FE
:100320008F83C002C003C004C005120609AE82AFAD
:1003300083A8F0F9D005D004D003D002C006C007CE
:10034000C000C0018A828B838CF0ED12057A858211
:100350000C85830D85F00EF50FE58124FCF581E415
:10036000C0E074C0C0E074A8C0E0744BC0E0850C6D
:1003700082850D83850EF0E50F12061685820885AD
:10038000830985F00AF50BE58124FCF5817A00BA32
:100390000100400302043A8A82C0021201D2120410
:1003A000C0AB82AC83ADF0FEC003C004C005C00684
:1003B00090126F75F08374401204CCAB82AC83ADA5
:1003C000F0FEE58124FCF581E4C0E074C0C0E07477
:1003D0007FC0E07444C0E08B828C838DF0EE120607
:1003E00016AB82AC83ADF0FEE58124FCF581D00232
:1003F0008A077800C002C003C004C005C006C00759
:10040000C0007499C0E07400C0E07480C0E01205C0
:10041000E8E58124F7F581C008C009C00AC00B7463
:10042000A5C0E07400C0E07480C0E01205E8E5817A
:1004300024F9F581D0020A02038F74B4C0E074007D
:10044000C0E07480C0E01205E815811581158102B5
:10045000035FAAF0FBE5828512F0A4FCADF0E58312
:100460008512F0A42DFDE435F0FEE5828513F0A49D
:100470002DFDE5F03EFEE433FFEA8512F0A42EFEEA
:10048000E5F03FFFE5838513F0A42EFEE5F03FFF86
:10049000E5828514F0A42EFEE5F03FFFEB8512F017
:1004A000A42FFFEA8513F0A42FFFE5838514F0A4A1
:1004B0002FFFE5828515F0A42F8EF08D838C82228C
:1004C000E4AC83AB82FAF9748E02073E1207CABC11
:1004D0000003020769EF60FA30D502B2D1E583B4B8
:1004E000FF0302077FE582B4FF0302077F258340F5
:1004F000072482400B020769248314500302077FFC
:10050000F582EA8DF0A4A8F0EA8EF0A428F8E4358C
:10051000F0F9EB8DF0A428E935F0F9E433CA8FF057
:10052000A429F9EA35F0FAEBF88EF0A429F9EA35B6
:10053000F0FAE433FBEC8DF0A429F9EA35F0FAE4A3
:100540003BFBE88FF0A42AFAEB35F0FBE433CCFD5B
:100550008EF0A42AFAEB35F0FBE43CFCED8FF0A41E
:100560002BFBEC35F0FC20E703120797020748E469
:10057000AC82FBFAF9748602073E1207CA7900E5DD
:1005800083B58202800D50031207F8E583C395827C
:10059000120812E5D0C465D020E117EA2DFAEB3E2F
:1005A000FBEC3FFC50097401120812EC4480FC0281
:1005B0000748C3EA9DFAEB9EFBEC9FFC500FC3E497
:1005C00099F9E49AFAE49BFBE49CFCB2D1120797F8
:1005D0000207480211E185823085833185F032853A
:1005E00011339005D3020C34C010858110E510241E
:1005F000FBF533E51024FBF8863008863108863297
:100600009005D3120C34D01022AC83AB827A0079DF
:1006100000748E0211FF1207CA30D502B2D1BF009A
:1006200009BC000302078C02077FBC0003020769B4
:10063000E583B4FF0BE582B4FF0302078C02076970
:10064000E582B4FF0302077FC395835007247F40F0
:100650000B020769248014500302077FC0E0E4CC3A
:10066000CBCAF98D128E138F14EF54F0C4F51575A3
:1006700083068515F0EB84F582E9C4F9EAC4FAEB48
:10068000C4FBEC540FC47803D6FC18EBD6FB18EA75
:10069000D6FA8582F0EDA4A8F0FD8582F0EEA428BC
:1006A000FEE435F0F88582F0EFA428FFE435F0F899
:1006B000E99DF9EA9EFAEB9FFBEC98FCAD12AE13B4
:1006C000AF1430E7101582E92DF9EA3EFAEB3FFB53
:1006D000E43CFC80EDC082D58398C3E933F9EA336A
:1006E000FAEB33FBEC33FCC3E99DEA9EEB9FEC9401
:1006F00000B3E413F9D002D0E0C44AFAD003D0E04A
:10070000C44BFBD004D0E0F5F0540FC44CFCD082B5
:10071000158230F40FD3EC13FCEB13FBEA13FAE968
:1007200013F90582E930E70A74012AFAE43BFBE495
:100730003CFC020760FCABF0AA83A982749EC2D184
:10074000F582120797020748B98003EA13B34010F5
:10075000EA2401FAE43BFBE43CFC50047C80058283
:10076000BC000EBB000BBA0008E4F5F0F583F5827F
:1007700022A2D1E582138CF092F78B838A8222E445
:10078000F583F58275F080F4A2D11322E4F583F5A8
:100790008275F0C0747F227804EC7011E58224F831
:1007A000500AF582E4C9CACBFCD8EF22EC782005C8
:1007B0008220E713D5820122C3E933F9EA33FAEB49
:1007C00033FBEC33FCD8EA158222AA82AB83A2F772
:1007D0003392D16002D2F7F582ACF0E58124F9F8CA
:1007E000E6FD08E6FE0886F008E6A2F73392D5603B
:1007F00002D2F7F583AFF022E582C583F582A2D15C
:1008000033A2D592D11392D5ECCFFCEBCEFBEACD3F
:10081000FA226040F82582500274FFF582E824F83D
:10082000501ECCCBCAF9E4CC24F85014CBCAF9E45E
:10083000CB24F8500BCAF9E4CA24F85003790022FB
:1008400024086010F8C3EC13FCEB13FBEA13FAE97D
:1008500013F9D8F122AA827466C0E07408C0E0C01F
:1008600022C0238A82220529E4B52902052A22AA68
:100870008274302AFA24C6500A74072AFA30000318
:100880004302208A82020855E582FAC4540FF58299
:10089000C00212086FD002740F5AF58202086FAAC4
:1008A00024AB25AC26AD27AE28752F20EE2EFEED0D
:1008B000235401FF4206EA2AFAEB33FBEC33FCED4A
:1008C00033FDC3EE952B4008EEC3952BFE4302018A
:1008D000D52FD98A248B258C268D278E28227840E7
:1008E000E624D075F00AA4FA7841E624D02AFA78F2
:1008F0003F8603BB2D04C3E49AFA752B01C3E4645D
:10090000808AF063F08095F05029752F038A037474
:10091000F6252F401C052BE52F142434F8E52F2451
:1009200034F98704A604772E1BEBFA6004052F80A8
:10093000DE8B02EA30E70D783586037836A6037839
:1009400035762E0AE52D600AE52D04FB252BF52BC7
:100950008005300B02052B78348603E4BB2D01049F
:10096000FB7006200603300702052B300403020A41
:1009700025300557EB600C75822DC002120855D04A
:1009800002801C30060C75822BC002120855D00262
:10099000800D30070A758220C002120855D00278F7
:1009A000358604BC2E0C758230C002120855D00268
:1009B000152CAC2C152CC3E52B9C4003020A697541
:1009C0008230C002120855D00280E7AC2C152CC32F
:1009D000E52B9C500C758220C002120855D0028075
:1009E000EA78348604BC2D0C75822DC0021208559D
:1009F000D002801C30060C75822BC002120855D024
:100A000002800D30070A758220C002120855D002FC
:100A100078358604BC2E52758230C002120855D03B
:100A200002152C8044EB600E75822DC00212085511
:100A3000D002152C802030060E75822BC0021208C1
:100A400055D002152C800F30070C758220C0021281
:100A50000855D002152C78358603BB2E0C758230D4
:100A6000C002120855D002152C752F01C20DE52FBA
:100A70002434F88603BB4503020B26BB2E348A03BD
:100A8000C3E464808BF063F08095F0500F75823082
:100A9000C003120855D0031B8B0280E48B02D20DD9
:100AA000E52D7038200B03020B2675822E12085597
:100AB0008074300D278A03EB30E71FC3E464808520
:100AC0002DF063F08095F0500C758230C003120851
:100AD00055D003152D0B8B0280DD8B02300D0EC31C
:100AE000E46480852DF063F08095F05021E52F249B
:100AF00034F886038B82C002120855D002300D0EE6
:100B0000E52F2434F88603BB2E028002152D152C08
:100B1000C3E46480852DF063F08095F04003200DE0
:100B200005052F020A6EC3E46480852DF063F08012
:100B300095F0500A758230120855152D80E8300462
:100B40000FAA2C152CEA600875822012085580F136
:100B500022E52D7003300B0D7407252DFAE52CC30B
:100B60009AF52C8006E52C24FAF52C752F007834A4
:100B70008602BA2B0F20060C7834762020070575E4
:100B80002F01052C200419AA2CC3E464808AF06389
:100B9000F08095F0500A758220120855152C80E7D8
:100BA000C20DE52F2434F88602BA00028069BA45E6
:100BB0001F3000027665C3E46480852DF063F08009
:100BC00095F0500A758230120855152D80E8D20D27
:100BD000C3E52F9402E433FA7014EA700EC3E464A0
:100BE00080852DF063F08095F04003300D16E52FE1
:100BF0002434F886028A82120855E52F24FD50120B
:100C0000152D800E7402B52F09300B0675822E1239
:100C10000855052F020BA2300419AA2CC3E46480E6
:100C20008AF063F08095F0500A75822012085515FD
:100C30002C80E722858222858323E4F529F52AAAE0
:100C400030AB31AC328A828B838CF0121223FD746C
:100C5000012AF530E43BF5318C32EDFA70030211D4
:100C6000DABA250280030211D2C204C205C206C24A
:100C700007C208C209C20AC20BC201C202C203757E
:100C80002B00752C00752DFFAB30AC31AD328B8253
:100C90008C838DF0121223FAA3AB82AC838B308C41
:100CA000318D32BA25078A8212085580928A06BE93
:100CB0003000402E8A06EE24C6402774FFB52D135F
:100CC000E52C75F00AA4FEEA24D02EF52C70BFD2D4
:100CD0000580BBE52D75F00AA4FEEA24D02EF52D83
:100CE00080ACBA2E0A74FFB52DA4752D00809F8AA2
:100CF00006BE6100400E8A06EE248540075302DFDF
:100D0000D2008002C200BA20028075BA2303020D0D
:100D10008FBA2A03020D94BA2B02805FBA2D02808B
:100D200055BA4202805FBA4303020DD9BA440302A6
:100D30000F14BA4503020F2EBA4603020F2ABA4710
:100D400003020F32BA4903020F14BA4C02803BBAB5
:100D50004E03020F36BA4F03020F1BBA5003020EA6
:100D6000ADBA5303020DFDBA5503020F20BA580362
:100D7000020F25020F60D204020C8ED206020C8EE6
:100D8000D207020C8ED209020C8ED20A020C8ED22D
:100D90000B020C8E74FFB52D2030090BE53314F8CF
:100DA0008833862C020C8EE53324FEF888338606C1
:100DB000088607188E2C020C8E30090BE53314F8C8
:100DC0008833862D020C8EE53324FEF888338606A0
:100DD000088607188E2D020C8E30090AE53314F8A8
:100DE00088338602800FE53324FEF88833860308B3
:100DF0008604188B028A82120855020F65E5332497
:100E0000FDF88833860308860408860518188B24A5
:100E10008C258D268B828C838DF0121377AB82AC60
:100E2000838B2E74FFB52D03852E2D20041DC3E565
:100E30002E952C5016E52CC3952EF52CAB2C152C8D
:100E4000EB600875822012085580F1852482852583
:100E5000838526F0121223FBFA6029AB2D152DC3D2
:100E6000E464808BF063F08095F050188A82120859
:100E700055AB24AC25AD260BBB00010C8B248C2577
:100E80008D2680C7200403020F65C3E52E952C40F4
:100E900003020F65E52CC3952EF52CAB2C152CEB1E
:100EA0007003020F6575822012085580EEE5332429
:100EB000FDF88833860308860408860518188B24F5
:100EC0008C258D26E526FB30E7047A438013EB540E
:100ED0006060047A50800AEB30E6047A4980027A36
:100EE000588A82C00212085575823A1208557582D6
:100EF00030120855758278120855D002BA4902801E
:100F00000BBA500280068525821208888524821239
:100F100008888051D208752B0A804A752B088045B5
:100F2000752B0A8040752B10803BD2018037D2028E
:100F30008033D203802FE53324FDF88833860308FD
:100F4000860408860518188B248C258D268B828CA8
:100F5000838DF0E52912135EA3E52A12135E800546
:100F60008A82120855200106200203300370E533FF
:100F700024FCF8883386030886040886050886065C
:100F80001818188B248C258D268E27E524E525E559
:100F900026E5278B828C838DF0EE12123F74FFB50D
:100FA0002D03752D06300327747F5527FB8B28E50D
:100FB00028EB2BFB8B28E52630E70674014528F546
:100FC00028E52824684006749925284002D202307A
:100FD0000206120B51020C3F1208DE020C3FE52BF9
:100FE0007003020C3F7B3930092BE53314F888334A
:100FF000E6FC3395E0FDFEFF8C248D258E268F27A1
:1010000020085EAC247D007E007F008C248D258E20
:10101000268F27804C300A1FE53324FCF88833865E
:10102000040886050886060886071818188C248D7B
:10103000258E268F27802AE53324FEF88833860400
:1010400008860518ED3395E0FEFF8C248D258E264D
:101050008F2720080CAC24AD257E007F008E268FC4
:1010600027300B43E524452545264527603974087C
:10107000B52B0C758230C003120855D0038028743C
:1010800010B52B23758230C003120855D0033000F1
:101090000C758278C003120855D003800A758258F7
:1010A000C003120855D003300825AC24AD25AE2668
:1010B000E527FF30E717C3E49CFCE49DFDE49EFEBA
:1010C000E49FFF8C248D258E268F278002C2087511
:1010D0002E00D20C8B00752800C00012089FD00093
:1010E000200C0DE528C4FCE6FD4CF61888038002B0
:1010F000A628052EB20CE52445254526452770D6A1
:101100008803E52C7003752C0120051A200417E5CF
:101110002E04FCC3952C500E758220C00312085576
:10112000D003152C80E930080E75822DC0031208FB
:1011300055D003152C8024E52E602030060E7582D4
:101140002BC003120855D003152C800F30070C75E7
:101150008220C003120855D003152C20041EAC2C8D
:10116000152CC3E52E9C50273005047C3080027C72
:10117000208C82C003120855D00380E2C3E52E956F
:101180002C5009E52CC3952EF52C8003752C008B73
:1011900000AB2E152EEB6022B20C200C0A08E6C420
:1011A000540FFB8B2880078603740F5BF528852876
:1011B00082C00012086FD00080D7200403020C3FC9
:1011C000AB2C152CEB7003020C3F758220120855D6
:1011D00080EE8A82120855020C3F852982852A8377
:1011E00022AA82BA0A0810990280FB75990D1099FB
:1011F0000280FB8A9922FCABF0AA83A982749EF537
:1012000082C2D1EC30E716D2D1E9F42401F9EAF434
:101210003400FAEBF43400FBECF43400FC120797D2
:1012200002074820F71430F6148883A88220F507B7
:10123000E6A88375830022E280F7E49322E022C0CF
:10124000E0F84582458345F07009F5F0FBFCFDFEB2
:1012500002130DE823A2F792E0F8A982AA83D2F73D
:10126000ABF07C007E07C3749798404074FF2EFE5D
:10127000740A89F0A4F985F082740A8AF0A4FA85C8
:10128000F083740A8BF0A4FB740529F9EA3582FA1D
:10129000EB3583FB740035F0FCC3EC13FCEB13FB64
:1012A000EA13FAE913F908EC70EF80BAE8C3947F07
:1012B000F88B838EF0E4FBFCFDFEFF08C3E933F9F5
:1012C000EA33FAE58333F583EB3BD4FBEC3CD4FC07
:1012D000ED3DD4FDEE3ED4FEEF3FD4FF602D05F092
:1012E00074052BD4FBE43CD4FCE43DD4FDE43ED4B3
:1012F000FEE43FD4FF758204C3EF13FFEE13FEED4F
:1013000013FDEC13FCEB13FBD582EDD8AF7834D092
:10131000E020E704762B8002762D087906E7C45496
:101320000F4430F608B90603762E08E7540F443010
:10133000F60819B902E7764508E5F020E704762BB0
:101340008004762DF4040875F00A844430F608E52C
:10135000F04430F608E4F690003475F0402220F7AF
:101360001030F6118883A88220F507F6A8837583CC
:101370000022F280F7F022AA82AB83ACF07D007EDF
:10138000008A828B838CF0121223FFA3AA82AB8384
:10139000EF60070DBD00EA0E80E78D828E8322008C
:00000001FF
